:100000000C9477010C94A8010C94A8010C94A801FD
:100010000C94A8010C94A8010C94A8010C94A801BC
:100020000C94A8010C94A8010C94A8010C94A801AC
:100030000C94A8010C94A8010C94A8010C94A8019C
:100040000C94A8010C94A8010C94A8010C94A8018C
:100050000C94A8010C94A8010C94A8010C942605FA
:100060000C94A8010C94F0040C94C6040C94A80100
:100070000C94A8010C94A8010C94A8010C94A8015C
:100080000C94A8010C94A8010C94A8010C94A8014C
:100090000C94A8010C94A8010C94A8010C94A8013C
:1000A0000C94A8010C94A8010C94A8010C94A8012C
:1000B0000C94A8010C94A8010C94A8010C94A8011C
:1000C0000C94A8010C94A8010C94A8010C94A8010C
:1000D0000C94A8010C94A8010C94A8010C94A801FC
:1000E0000C94A80108000000BE922449123EABAA5D
:1000F000AA2ABECDCCCC4C3E00000080BEABAAAA42
:10010000AA3E00000000BF000000803F0000000089
:1001100000084178D3BB4387D1133D190E3CC3BDC2
:100120004282AD2B3E68EC8276BED98FE1A93E4C6F
:1001300080EFFFBE01C4FF7F3F00000000000C9471
:1001400092030C947A030C949A030C940C080C946C
:10015000E8070C9416080C9457080C947E030C9432
:1001600053030C942F080C9480020C9467080C9491
:1001700002080C9439080C94E6010C9448020C9483
:10018000DE070C9496030C9461080C94D7010C9430
:10019000AA010C944E030C9420080C94CA070C94EA
:1001A00071030C94F2070C94A4030C9443080C9470
:1001B000CF070C94A0030C94D4070C94FA070C946A
:1001C0004D080C943A020C948C030C946D030C941F
:1001D00084030C94CD020C9469030C9474030C9466
:1001E00065030C94880300002100240027002A00E6
:1001F0002D003000330001010000040107010A0155
:1002000000002200250028002B002E0031003400C1
:1002100002010000050108010B01050505050705A0
:1002200008080808020202020A0A08080404040472
:10023000010101010101010103030303030303039E
:10024000040707070C0C0C0C0C0C0C0C020202022D
:1002500006060606060606060B0B0B0B0B0B0B0B16
:1002600001021020200808102040102040800201C8
:1002700002010804020101020408102040808040AD
:1002800020100804020180040201804020100804AC
:10029000020108040201010204081020408001024A
:1002A00004081020408000000A0B02090C0D0E0803
:1002B000070304010000000000000000000000002F
:1002C000000000000000000000000000000000002E
:1002D00000001211100000000000000000000000EB
:1002E000000000000000000000000000670811246A
:1002F0001FBECFEFD1E2DEBFCDBF00E00CBF22E0DA
:10030000A0E2B2E001C01D92A53DB207E1F712E004
:10031000A0E0B2E0EEE9FBE100E00BBF02C0079015
:100320000D92A032B107D9F711E0C7E7D1E000E0A4
:1003300006C021970109802FFE010E949B0BC63742
:10034000D10780E00807A9F70E9470050C94CD0D35
:100350000C940000AF92BF92CF92DF92EF92FF9287
:100360000F931F93CF93DF936C017B018B01040FDD
:10037000151FEB015E01AE18BF08C017D10759F079
:100380006991D601ED91FC910190F081E02DC601BB
:100390001995892B79F7C501DF91CF911F910F91A5
:1003A000FF90EF90DF90CF90BF90AF900895FC0149
:1003B000538D448D252F30E0842F90E0821B930BCA
:1003C000541710F0CF96089501970895FC01918D70
:1003D000828D981761F0A28DAE0FBF2FB11D5D9673
:1003E0008C91928D9F5F9F73928F90E008958FEF15
:1003F0009FEF08952FB7F8948091300290913102C9
:10040000A0913202B09133022FBF80933C029093AF
:100410003D02A0933E02B0933F0284E392E00E942B
:10042000E60197FF26C02FB7F89480913002909193
:100430003102A0913202B09133022FBF40913C02B1
:1004400050913D0260913E0270913F02841B950BDA
:10045000A60BB70B409138025091390260913A02D5
:1004600070913B0284179507A607B707B0F28FEF8C
:100470009FEF0895FC01918D828D981731F0828D48
:10048000E80FF11D858D90E008958FEF9FEF08959F
:10049000FC01918D228D892F90E0805C9F4F821B03
:1004A00091098F739927089584E392E00E9448028E
:1004B00021E0892B09F420E0822F0895FC01A48D0E
:1004C000A80FB92FB11DA35ABF4F2C91848D90E076
:1004D00001968F739927848FA689B7892C93A08959
:1004E000B1898C91837080648C93938D848D9813E3
:1004F00006C00288F389E02D80818F7D8083089576
:10050000EF92FF920F931F93CF93DF93EC0181E063
:10051000888F9B8D8C8D98131AC0E889F98980810A
:1005200085FF15C09FB7F894EE89FF896083E8893D
:10053000F98980818370806480839FBF81E090E02F
:10054000DF91CF911F910F91FF90EF900895F62EBC
:100550000B8D10E00F5F1F4F0F731127E02E8C8D56
:100560008E110CC00FB607FCFACFE889F98980819B
:1005700085FFF5CFCE010E945E02F1CFEB8DEC0F2F
:10058000FD2FF11DE35AFF4FF0829FB7F8940B8FB8
:10059000EA89FB8980818062CFCFCF93DF93EC0122
:1005A000888D8823B9F0AA89BB89E889F9898C915B
:1005B00085FD03C0808186FD0DC00FB607FCF7CF17
:1005C0008C9185FFF2CF808185FFEDCFCE010E9417
:1005D0005E02E9CFDF91CF91089580E090E0892B12
:1005E00029F00E94540281110E94000080E090E0F6
:1005F000892B49F080E090E0892B29F00E940000CF
:1006000081110E94000080E090E0892B49F080E099
:1006100090E0892B29F00E94000081110E940000C7
:1006200080E090E0892B49F080E090E0892B29F070
:100630000E94000081110C9400000895282F30E0E2
:10064000F901EA55FD4F9491F901E05AFD4F4491AB
:10065000265E3D4FF9012491222309F435C09923E8
:1006600011F191509231F8F4E92FF0E08827E45C21
:10067000FC4F8F4F0C949B0B6D0371034E0365036E
:100680006903530374037A037E03840388038C0392
:100690009203960353039A03A003A403809180005E
:1006A0008F7780938000E22FF0E0EE0FFF1FE05085
:1006B000FE4FA591B4918FB7F894EC91611148C0A9
:1006C00040954E234C938FBF0895809180008F7D7D
:1006D000E8CF80918000877FE4CF84B58F7784BD99
:1006E000E2CF84B58F7DFBCF8091B0008F77809370
:1006F000B000D9CF8091B0008F7DF9CF809190006C
:100700008F7780939000CFCF809190008F7DF9CF2D
:1007100080919000877FF5CF8091A0008F778093A4
:10072000A000C1CF8091A0008F7DF9CF8091A00063
:10073000877FF5CF809120018F7780932001B3CF01
:10074000809120018F7DF9CF80912001877FF5CFA7
:100750004E2BB8CFCF93DF9390E0FC01E05AFD4FD2
:100760002491865E9D4FFC0184918823D1F090E016
:10077000880F991FFC01EA51FE4FA591B491FC012D
:10078000E050FE4FC591D49161110EC09FB7F8940F
:100790008C91E22FE0958E238C932881E223E883CD
:1007A0009FBFDF91CF9108958FB7F894EC91E22B22
:1007B000EC938FBFF6CF3FB7F894809121029091D0
:1007C0002202A0912302B091240226B5A89B05C065
:1007D0002F3F19F00196A11DB11D3FBFBA2FA92FC0
:1007E000982F8827BC01CD01620F711D811D911DBD
:1007F00042E0660F771F881F991F4A95D1F7089529
:100800008F929F92AF92BF92CF92DF92EF92FF9220
:100810006B017C010E94DB034B015C01C114D1041C
:10082000E104F104B9F00E94DB03681979098A092F
:100830009B09683E73408105910580F321E0C21A4F
:10084000D108E108F10888EE880E83E0981EA11C0B
:10085000B11CE4CFFF90EF90DF90CF90BF90AF90AE
:100860009F908F900895FC0101900020E9F7319747
:10087000AF01481B590BBC0184E392E00C94AA0120
:100880000F931F93CF93DF93EC0188819981009799
:1008900059F02A813B812617370730F081E0DF913C
:1008A000CF911F910F9108958B016F5F7F4F0E9431
:1008B000DC0C009759F0998388831B830A832C8171
:1008C0003D81232B59F7FC011082E8CF80E0E7CF70
:1008D0008F929F92AF92BF92CF92DF92EF92FF9250
:1008E0009B01AC0160E070EC8FE794E40E94380A51
:1008F00020E030E040E85FE30E94CB0920E030E4F4
:100900004CE156E40E940D090E94E80A6B017C014B
:100910002CE63FEC48E554E30E940D09A70196013F
:100920000E940D09A70196010E940D094B015C016F
:1009300026ED34E649E759E3C701B6010E940D09E7
:100940002BEC38E444E85AE30E94CC099B01AC014B
:10095000C501B4010E94CC099B01AC0160E070E0CC
:1009600080E89FE30E94380A23E333E948E853E430
:100970000E94CB090E94AA0ACB01FF90EF90DF9062
:10098000CF90BF90AF909F908F9008951F920F923D
:100990000FB60F9211240BB60F922F933F934F93E4
:1009A0005F936F937F938F939F93AF93BF93EF93D7
:1009B000FF9384E392E00E945E02FF91EF91BF916A
:1009C000AF919F918F917F916F915F914F913F91E7
:1009D0002F910F900BBE0F900FBE0F901F90189588
:1009E0001F920F920FB60F9211240BB60F922F93F6
:1009F0008F939F93EF93FF93E0914402F091450210
:100A00008081E0914A02F0914B0282FD1DC09081ED
:100A100080914D028F5F8F7320914E02821741F0BB
:100A2000E0914D02F0E0EC5CFD4F958F80934D021C
:100A3000FF91EF919F918F912F910F900BBE0F908F
:100A40000FBE0F901F9018958081F2CF1F920F92CA
:100A50000FB60F9211242F933F938F939F93AF93D1
:100A6000BF938091300290913102A0913202B091F7
:100A700033023091200223E0230F2D3758F50196E1
:100A8000A11DB11D2093200280933002909331026A
:100A9000A0933202B09333028091210290912202FE
:100AA000A0912302B09124020196A11DB11D809353
:100AB000210290932202A0932302B0932402BF91BB
:100AC000AF919F918F913F912F910F900FBE0F90FB
:100AD0001F90189526E8230F0296A11DB11DD2CFB5
:100AE000CF93DF93CDB7DEB7A3970FB6F894DEBFF1
:100AF0000FBECDBF789484B5826084BD84B581601B
:100B000084BD85B5826085BD85B5816085BD8091D8
:100B10006E00816080936E00109281008091810050
:100B20008260809381008091810081608093810048
:100B3000809180008160809380008091B10084600A
:100B40008093B1008091B00081608093B00080916B
:100B500091008260809391008091910081608093E8
:100B60009100809190008160809390008091A1001D
:100B700082608093A1008091A10081608093A10098
:100B80008091A00081608093A0008091210182600B
:100B900080932101809121018160809321018091C6
:100BA000200181608093200180917A00846080938D
:100BB0007A0080917A00826080937A0080917A0036
:100BC000816080937A0080917A00806880937A00B7
:100BD0001092C100E0914402F091450282E08083CE
:100BE000E0914002F09141021082E0914202F091C6
:100BF000430280E1808310924C02E0914802F09120
:100C0000490286E08083E0914602F09147028081AC
:100C100080618083E0914602F09147028081886084
:100C20008083E0914602F091470280818068808352
:100C3000E0914602F091470280818F7D808361E0E0
:100C400084E00E94AA0360E086E30E94AA0304E114
:100C500010E08AEA282E82E0382E84E392E00E9497
:100C60004802892B09F45FC01A8219821C821B82F8
:100C70001E821D8270E060E0CE0101960E94400459
:100C800029813A8181112CC02115310519F0C90142
:100C90000E94530C1A8219821E821D821C821B82A2
:100CA0000E94FA0197FD24C08AA31BA2ED80FE805A
:100CB0008FEFE81AF80AB701CE0101960E944004AE
:100CC000882371F329813A818D819E81BE016E5DF9
:100CD0007F4F820F931F0E94C60DFE82ED82E0CFF0
:100CE0001E821D826EE172E0C9010E94C60DD8CF3E
:100CF000E980FA8060E070E0CB01E114F10419F0C2
:100D0000C7010E94940870932F0260932E02E11491
:100D1000F10419F0C7010E94530C6CE271E080E00D
:100D200090E00E94000480912D028F5F80932D023D
:100D300080917B00877F80937B0090E490937C0080
:100D400080917A00806480937A0080917A0086FD99
:100D5000FCCF909178008091790089279827892786
:100D600020912B0230912C02820F931F90932C0222
:100D700080932B0220912D02243109F0BFC0B801CD
:100D80000E94650B072E000C880B990B0E94D2085D
:100D900060932702709328028093290290932A027D
:100DA00010922C0210922B0210922D0288E192E0F8
:100DB0000E943304609127027091280280912902D9
:100DC00090912A020E9468046C01990FEE08FF08B6
:100DD000F7FE9DC06DE284E392E00E94800222272C
:100DE0003327A9012C193D094E095F0919A2FE01FB
:100DF000B1967F01CA01B9012AE030E040E050E03D
:100E00000E94790B605DF70162937F012115310526
:100E10004105510579F7E114F10419F0C7010E9469
:100E200033048CE192E00E943304E0902E02F090B3
:100E30002F026091270270912802809129029091DF
:100E40002A020E946804BC01990F880B990B0E942A
:100E5000D2082B013C01B701FF0C880B990B0E94B3
:100E6000D2084B015C01A30192010E94380A6B0178
:100E70007C0120E030E040E854ECC301B2010E9464
:100E80000D09A50194010E94380A20E030E040E8F5
:100E900054E40E94CC090E94AA0A072E000C880B79
:100EA000990B0E94D2084B015C01A7019601C70172
:100EB000B6010E940D099B01AC01C501B4010E945D
:100EC0000D0920E030E040EA50E40E94380A0E9418
:100ED000AA0A77FD34C07093260260932502E09041
:100EE0002502F090260261E084E00E94AA03E1144A
:100EF000F10451F560E084E00E941E0364E170E0BB
:100F000080E090E00E9400040E94ED02A6CEA701BE
:100F1000960119A2CE0181967C01CA01B9012AE08D
:100F200030E040E050E00E94790B605DF701629391
:100F30007F01211531054105510579F76CCF1092DC
:100F4000260210922502CBCFFFEFEF16F10411F429
:100F500061E0D1CFF1018491EFEFE80FE23108F0C9
:100F6000B0C0F0E08827E854F84F8F4F0C949B0BEB
:100F7000CA07CF07D407DE07E8076108F207FA07B8
:100F800002080C08160820082F08390861084308D1
:100F90004D08570884B5806884BDE7BCAFCF84B5E1
:100FA000806284BDE8BCAACF809180008068809375
:100FB0008000F0928900E0928800A0CF80918000AC
:100FC000806280938000F0928B00E0928A0096CF3E
:100FD00080918000886080938000F0928D00E09284
:100FE0008C008CCF8091B00080688093B000E0923C
:100FF000B30084CF8091B00080628093B000E09213
:10100000B4007CCF80919000806880939000F09233
:101010009900E092980072CF809190008062809356
:101020009000F0929B00E0929A0068CF809190002F
:10103000886080939000F0929D00E0929C005ECFCB
:101040008091A00080688093A0008091A0008F7B99
:101050008093A000F092A900E092A8004FCF809169
:10106000A00080628093A000F092AB00E092AA0002
:1010700045CF8091A00088608093A000F092AD00E1
:10108000E092AC003BCF80912001806880932001EA
:10109000F0922901E092280131CF809120018062F5
:1010A00080932001F0922B01E0922A0127CF8091BA
:1010B0002001886080932001F0922D01E0922C01A4
:1010C0001DCFF0E8EF16F1040CF042CF13CFE4E3AC
:1010D000F2E01382128288EE93E0A0E0B0E0848315
:1010E0009583A683B7838AE092E09183808385EC21
:1010F00090E09587848784EC90E09787868780ECE2
:1011000090E0918B808B81EC90E0938B828B82ECD2
:1011100090E0958B848B86EC90E0978B868B118E7C
:10112000128E138E148E08951F93FC019927882721
:10113000BC01E89411911032E9F3193010F01E301F
:10114000C8F31B3251F01D3249F4689406C00E9466
:10115000BB08610F711D811D911D119110531A3033
:10116000B0F33EF490958095709561957F4F8F4FC9
:101170009F4F1F910895592F482F372F262F660F05
:10118000771F881F991F660F771F881F991F620F8F
:10119000731F841F951F660F771F881F991F08955F
:1011A000E89409C097FB3EF4909580957095619501
:1011B0007F4F8F4F9F4F9923A9F0F92F96E9BB27B7
:1011C0009395F695879577956795B795F111F8CF33
:1011D000FAF4BB0F11F460FF1BC06F5F7F4F8F4F9E
:1011E0009F4F16C0882311F096E911C0772321F094
:1011F0009EE8872F762F05C0662371F096E8862F2C
:1012000070E060E02AF09A95660F771F881FDAF782
:10121000880F9695879597F908950E9420090C9458
:1012200091090E94830938F00E948A0920F09523D1
:1012300011F00C947A090C94800911240C94C509BE
:101240000E94A20970F3959FC1F3950F50E0551FBE
:10125000629FF001729FBB27F00DB11D639FAA270B
:10126000F00DB11DAA1F649F6627B00DA11D661F5A
:10127000829F2227B00DA11D621F739FB00DA11D7B
:10128000621F839FA00D611D221F749F3327A00D35
:10129000611D231F849F600D211D822F762F6A2FD1
:1012A00011249F5750409AF0F1F088234AF0EE0F36
:1012B000FF1FBB1F661F771F881F91505040A9F763
:1012C0009E3F510580F00C947A090C94C5095F3F4C
:1012D000E4F3983ED4F3869577956795B795F7959F
:1012E000E7959F5FC1F7FE2B880F911D9695879517
:1012F00097F9089597F99F6780E870E060E0089596
:101300009FEF80EC089500240A941616170618061D
:101310000906089500240A941216130614060506F9
:101320000895092E0394000C11F4882352F0BB0F8A
:1013300040F4BF2B11F460FF04C06F5F7F4F8F4FED
:101340009F4F089557FD9058440F551F59F05F3F28
:1013500071F04795880F97FB991F61F09F3F79F0D7
:1013600087950895121613061406551FF2CF469559
:10137000F1DF08C0161617061806991FF1CF8695DB
:101380007105610508940895E894BB2766277727BF
:10139000CB0197F908955058BB27AA270E94E3096B
:1013A0000C9491090E94830938F00E948A0920F068
:1013B00039F49F3F19F426F40C9480090EF4E0955B
:1013C000E7FB0C947A09E92F0E94A20958F3BA1797
:1013D000620773078407950720F079F4A6F50C944B
:1013E000C4090EF4E0950B2EBA2FA02D0B01B90104
:1013F00090010C01CA01A0011124FF27591B99F08B
:10140000593F50F4503E68F11A16F040A22F232F96
:10141000342F4427585FF3CF469537952795A795E6
:10142000F0405395C9F77EF41F16BA0B620B730B8D
:10143000840BBAF09150A1F0FF0FBB1F661F771FFE
:10144000881FC2F70EC0BA0F621F731F841F48F4B3
:10145000879577956795B795F7959E3F08F0B0CF3C
:101460009395880F08F09927EE0F97958795089523
:101470000E944C0A0C9491090E948A0958F00E941B
:10148000830940F029F45F3F29F00C947A09511147
:101490000C94C5090C9480090E94A20968F3992351
:1014A000B1F3552391F3951B550BBB27AA27621760
:1014B0007307840738F09F5F5F4F220F331F441F6D
:1014C000AA1FA9F335D00E2E3AF0E0E832D09150A1
:1014D0005040E695001CCAF72BD0FE2F29D0660F8E
:1014E000771F881FBB1F261737074807AB07B0E8D1
:1014F00009F0BB0B802DBF01FF2793585F4F3AF0D7
:101500009E3F510578F00C947A090C94C5095F3F11
:10151000E4F3983ED4F3869577956795B795F7955C
:101520009F5FC9F7880F911D9695879597F9089544
:10153000E1E0660F771F881FBB1F621773078407E0
:10154000BA0720F0621B730B840BBA0BEE1F88F7EF
:10155000E09508950E94B10A6894B1110C94C509F0
:1015600008950E94AA0988F09F5798F0B92F9927EB
:10157000B751B0F0E1F0660F771F881F991F1AF07E
:10158000BA95C9F714C0B13091F00E94C409B1E016
:1015900008950C94C409672F782F8827B85F39F015
:1015A000B93FCCF3869577956795B395D9F73EF417
:1015B00090958095709561957F4F8F4F9F4F0895BF
:1015C00016F00C94300B0C94800968940C947A09F2
:1015D0000E94AA09A8F39923C1F3AEF3DF93CF9336
:1015E0001F930F93FF92C92FDD2788232AF021979D
:1015F000660F771F881FDAF720E030E040E85FEBE6
:101600009FE3883920F0803E38F021968F770E9442
:10161000CC09E4EEF0E004C00E94CC09E1E1F1E085
:101620000E943E0B8B01BE01EC01FB2E6F5771092E
:101630007595771F880B990B0E94D20828E132E735
:1016400041E35FE30E942009AF2D9801AE01FF90B6
:101650000F911F91CF91DF910E94E3090C949109A2
:101660009F3F31F0915020F4879577956795B79516
:10167000880F911D9695879597F90895DF93CF93DD
:101680001F930F93FF92EF92DF927B018C0168947E
:1016900006C0DA2EEF010E942009FE01E894A59110
:1016A0002591359145915591A6F3EF010E94E309EB
:1016B000FE019701A801DA9469F7DF90EF90FF909F
:1016C0000F911F91CF91DF91089597FB072E16F48C
:1016D000009407D077FD09D00E94A30B07FC05D02A
:1016E0003EF4909581959F4F0895709561957F4F39
:1016F0000895A1E21A2EAA1BBB1BFD010DC0AA1F53
:10170000BB1FEE1FFF1FA217B307E407F50720F06A
:10171000A21BB30BE40BF50B661F771F881F991FE5
:101720001A9469F760957095809590959B01AC012E
:10173000BD01CF010895EE0FFF1F881F8BBF0790DB
:10174000F691E02D1994AA1BBB1B51E107C0AA1FFB
:10175000BB1FA617B70710F0A61BB70B881F991F52
:101760005A95A9F780959095BC01CD0108950F93E6
:101770001F93CF93DF938230910510F482E090E0C5
:10178000E091D302F091D40230E020E0B0E0A0E09C
:10179000309799F42115310509F44AC0281B390BFB
:1017A00024303105D8F58A819B816115710589F155
:1017B000FB0193838283FE0111C04081518102812C
:1017C000138148175907E0F04817590799F4109703
:1017D00061F012960C93129713961C933296CF01D8
:1017E000DF91CF911F910F9108950093D302109331
:1017F000D402F4CF2115310551F04217530738F0C8
:10180000A901DB019A01BD01DF01F801C1CFEF01A0
:10181000F9CF9093D4028093D302CDCFFE01E20F93
:10182000F31F819391932250310939832883D7CFB5
:101830002091D1023091D202232B41F42091020257
:10184000309103023093D2022093D1022091000202
:10185000309101022115310541F42DB73EB7409179
:10186000040250910502241B350BE091D102F09146
:10187000D202E217F307A0F42E1B3F0B28173907FB
:1018800078F0AC014E5F5F4F2417350748F04E0FDC
:101890005F1F5093D2024093D102819391939FCFC7
:1018A000F0E0E0E09CCFCF93DF930097E9F0FC01FC
:1018B000329713821282A091D302B091D402ED012B
:1018C00030E020E01097A1F420813181820F931F36
:1018D0002091D1023091D2022817390709F061C056
:1018E000F093D202E093D102DF91CF910895EA0103
:1018F000CE17DF07E8F54A815B819E01411551054E
:10190000B1F7E901FB83EA8349915991C40FD51FCF
:10191000EC17FD0761F4808191810296840F951F79
:10192000E90199838883828193819B838A83F0E094
:10193000E0E012968D919C9113970097B9F52D9147
:101940003C911197CD010296820F931F2091D102F5
:101950003091D2022817390739F6309751F5109295
:10196000D4021092D302B093D202A093D102BCCF82
:10197000D383C28340815181840F951FC817D90733
:1019800061F44E5F5F4F88819981480F591F5183E1
:1019900040838A819B81938382832115310509F0DD
:1019A000B0CFF093D402E093D3029ECFFD01DC01CF
:1019B000C0CF13821282D7CF4F925F926F927F92E5
:1019C0008F929F92AF92BF92CF92DF92EF92FF924F
:1019D0000F931F93CF93DF938C01009799F4CB0162
:1019E000DF91CF911F910F91FF90EF90DF90CF90FB
:1019F000BF90AF909F908F907F906F905F904F902F
:101A00000C94B70BFC01E60FF71F9C012250310923
:101A1000E217F30708F4AEC0D901CD91DC9111971C
:101A2000C617D70720F1C530D10578F0CE0104974D
:101A30008617970750F0C61BD70B2297C193D193F7
:101A40006D937C93CF010E94530CC801DF91CF911D
:101A50001F910F91FF90EF90DF90CF90BF90AF90CC
:101A60009F908F907F906F905F904F9008955B0153
:101A7000AC1ABD0A4C018C0E9D1EA091D302B091F0
:101A8000D402512C412CF12CE12C109731F580918E
:101A9000D1029091D2028815990509F05CC04616D2
:101AA000570608F058C080910002909101020097FB
:101AB00041F48DB79EB74091040250910502841BFA
:101AC000950BE817F90708F055C0F093D202E093A0
:101AD000D102F90171836083B8CF8D919C911197E8
:101AE00012966C90129713967C901397A815B905CF
:101AF00059F56C0142E0C40ED11CCA14DB0420F17C
:101B0000AC014A195B09DA011296159780F06282DE
:101B1000738251834083D9016D937C93E114F10466
:101B200071F0D7011396FC93EE9312978ECF229605
:101B30008C0F9D1FF90191838083F301EFCFF09308
:101B4000D402E093D30281CF4816590608F42C0141
:101B50007D01D3019ACFCB010E94B70B7C01009786
:101B600049F0AE01B8010E94BD0DC8010E94530C9E
:101B700087016BCF10E000E068CFFB01DC0102C001
:101B800001900D9241505040D8F70895FB01DC01BF
:0E1B900001900D920020E1F70895F894FFCF28
:101B9E000000D5028000000000008002AA01D701DB
:101BAE00CD024802E6013A02726420000D0A0000DE
:00000001FF
